:0300000002158C5A
:0C158C00787FE4F6D8FD7581200215D3AD
:1019210030003430303000333030004D5053203AE5
:10193100006D2F680052533A00722F6D00545249C6
:10194100503A006D0054203A004300323031353AAC
:1019510030353A30380031343A30360030300030EA
:0D1961003030300030303000303030300099
:101B08004100610144005D000000004200620000E5
:1014FA007C007D64E0FAA3E0FBFFAE02120B0E7CD7
:10150A00007D0A120B0EED2430227D017BFF7E0046
:10151A007F05020A90E4F0A3F0A3F0A3F022A3F05F
:10152A0090005DE0FCA3E0FDA3E0FEA3E0FF12084B
:10153A00F2AB07AA0622E024D0FFE434FFFE7C00C7
:10154A00020AFC7D017BFF7E00020A90FD75F00A0B
:10155A0084E5F02430F0ED75F00A84243022F07C22
:10156A00007D0AAF0322E024D075F00AA4FFA3E0AD
:10157A0024D02F22E0FBA3E0900036F0E4A3F07D14
:02158A001B2222
:10001E0090000412151F78087C007D017BFF7A1971
:10002E00794CFE7F0B120A9078137C007A1979575F
:10003E007F0612154D78197C007A19795D7F0312AF
:10004E00154D781C7C007A19796012151478217C74
:10005E00007D017BFF7A1979657E007F04120A907C
:10006E0078257C007A19796912151490002A1215D8
:10007E001FA3121520A3F0C2A3121B6C121618D2C6
:10008E00B5C2B6121CB1900064740BF0A374B8F034
:10009E009000667427F0A37410F0121C9612000ED6
:1000AE007F041219B9900025EFF07F031219B99051
:1000BE000026EFF07F021219B9900027EFF07F01B2
:1000CE001219B9A907900028E9F09000267D641254
:1000DE001540AA06AB07900025E024D0FFE434FFBC
:1000EE00FE7C037DE8120AFCEF2BFBEE3AFA900041
:1000FE00277D0A121540EF2BFFEE3AFEE924D0FDC4
:10010E00EC34FFCD2FCD3EFCE41208B990005D1209
:10011E000BC9900061E04440F090001612157090EB
:10012E000032F0900013121570900031F0D2AF1221
:10013E001708900055E0FEA3E0FF90002FE06E70D0
:10014E0003A3E06F700302024C900061E064017043
:10015E000302024C9000551214FA900021121568F9
:10016E00121504A3F0900055A3E07C007D0AFFAEAB
:10017E000212150D900023F090002FEAF0A3EBF081
:10018E00900061E04420F0900055E0FEA3E0FF7C7B
:10019E00007D23120B0E900005EFF0900007E06F2C
:1001AE00600F900061E04408F0900005E0900007B9
:1001BE00F0900055E0FCA3E0FDE41208B97B997ABB
:1001CE00D979A4784412070EE4FBFA79C878421262
:1001DE0008171208F2900062EEF0A3EFF0900062A2
:1001EE007C037DE81214FE90001CF07C007D64AF51
:1001FE0003121504A3F0900062A3E07C007D0A12A6
:10020E00150390001E121568AE0212150DA3F09084
:10021E000061E04410F0A3E0FEA3E0FF7C017DC28C
:10022E00120B0E900004EFF0900006E06F600F903E
:10023E000061E04404F0900004E0900006F0D390DA
:10024E00005CE0943C90005BE0940050030202F9E5
:10025E00E4F01215287C037DE8121506900025F0B7
:10026E007C007D64AF031215041215287C007D0AF4
:10027E00121506900027121568AE0212150DA3F086
:10028E00FD7F01121B3A900027E0FD7F02121B3A00
:10029E00900026E0FD7F03121B3A900025E0FD7FC3
:1002AE0004121B3A9000617440F0900032E004F0AA
:1002BE00E0B43C22E4F0900031E004F090001774BA
:1002CE0030F0900016F0900031E0900014121556A8
:1002DE00900013F0800E900032E090001712155629
:1002EE00900016F0900061E04402F01217D69000D4
:1002FE002BEEF0A3EFF0A3E06E7003A3E06F60406F
:10030E00C390002CE094F490002BE0940150311235
:10031E0014FA900019121568121504A3F090002B10
:10032E00E0FEA3E0FFA3EEF0A3EFF0D3945EEE9415
:10033E00014004D2A38002C2A3900061E04480F089
:10034E00900061E020E0030204037B017A0079084B
:10035E00E4FD7F19121A301206007B127D1B7F23DB
:10036E001211697F101205DC7A1979237D257F33EE
:10037E00121A301204A61205967B127D1B7F5F1295
:10038E0011697F4C1205DC7A1979287D257F6F1251
:10039E001A301205047F5F120E457BFF7A19792CF5
:1003AE007D2FE4FF121A307A1979327F2E1205EA68
:1003BE007A1979367D2F7F44121A307A19793A7F5D
:1003CE00661205EA7A19793E7D38E4FF121A307A00
:1003DE001979447F2E12060E7A1979467F44120639
:1003EE000E7BFF7A19794A7D387F61121A309000A0
:1003FE0061E054FEF0900061E030E10A12060090D8
:10040E000061E054FDF0900061E030E218900000D1
:10041E0012157E7F23120E451204A6120596900029
:10042E0061E054FBF0900061E030E31A900002129C
:10043E00157E7F5F120E451205047F5F120E4590EA
:10044E000061E054F7F0900061E030E40C7A00793E
:10045E001C7D2F1205D054EFF0900061E030E50CBA
:10046E007A0079217D2F1205F454DFF0900061E0BF
:10047E0030E60C7A0079257D381205D054BFF09005
:10048E000061E020E70302013D7A0079197D381200
:08049E0005F4547FF002013D5A
:1004A600900004E0FCE41208BE7B2D7AF979057809
:1004B6003F12070E7BC37AF57948783F12061D1264
:1004C6001029E4FBFA7990784112070EE4FBFA79D9
:1004D600D8784112061D1208F2900001EFF0900044
:1004E60004E0FCE41208BE7B2D7AF97905783F1208
:1004F600070E7BC37AF57948783F12061D229000D5
:1005060005E0FCE41208BE7B2D7AF97905783F12E6
:10051600070E7BC37AF57948783F12061D1210291B
:10052600E4FBFA7990784112070EE4FBFA79D87861
:100536004112061D1208F2900003EFF0900005E04C
:10054600FCE41208BE7B2D7AF97905783F12070E76
:100556007BC37AF57948783F12061D12103FE4FBFB
:10056600FA7990784112070EA804A905AA06AB07E6
:10057600E4FFFE7DBE7C421206191208F2900002CC
:10058600EFF0FBA3E0900036F0A37401F07D1B2290
:1005960012103FE4FBFA7990784112070EA804A9DD
:1005A60005AA06AB07E4FFFE7D0C7C421206191273
:1005B60008F2900000EFF0FBA3E0900036F0A37481
:1005C60001F07D1B7F23120E45227B017F19121A33
:1005D60030900061E0227BFF7A1979217D25121A7D
:1005E600307BFF227BFF7D2F121A307BFF227B019F
:1005F6007F57121A30900061E0227B017A0079134E
:10060600E4FD7F50121A30227BFF7D38121A302209
:100BD5000000000000000000101020204040808030
:100BE50000F09090B0D090F0002060202020207080
:100BF50000F01010F08080F000F01010F01010F0F0
:100C050000909090F010101000F08080F01010F01F
:100C150000F08080F09090F000F01010101010108F
:100C250000F09090F09090F000F09090F01010F09F
:100C350000000060600060600000006060002060EF
:100C450000102040804020100000F00000F000005F
:100C5500008040201020408060901010600060608F
:100C6500609090B0A080906060909090F09090908F
:100C7500E0909090E09090E060908080808090601F
:100C8500E0A090909090A0E0F0808080F08080F0CF
:100C9500F08080F08080808060908080B09090703F
:100CA50090909090F0909090E0404040404040E01F
:100CB500F02020202020A0409090A0C0C0A09090BF
:100CC50080808080808080F0D8F8A8A8888888886F
:100CD50090D0D0D0B0B0B09060909090909090604F
:100CE500E09090E0808080806090909090B0E0707F
:100CF50060909090E0A0909060908040201090606F
:100D0500F8202020202020209090909090909060B6
:100D15009090909090A0C08088888888A8A8D8D8FE
:100D2500909090606090909088885070202020204E
:100D3500F0101020604080F0E0808080808080E0AE
:100D4500808040402020101070101010101010707E
:100D55004040A0A00000000000000000000000F0DE
:100D65007070200000000000000060107090B0500E
:100D750000008080E09090E000000070808080702E
:100D850000101010709090700000006090F080705E
:100D950000205040F040404000007090907010607E
:100DA50000808080E090909000004000C04040E0CE
:100DB50000002000602020E000008090A0C0A090EE
:100DC500000040404040506000000070A8A8A8A85E
:100DD500000000E09090909000000060909090607E
:100DE5000000E09090E080800000709090701010FE
:100DF500000000D05060404000000070806010E0AE
:100E050000004040F04050600000009090909060DD
:100E15000000009090B0E0800000000088A8A8D8ED
:100E2500000000909060909000000090907010700D
:100E3500000000F0106080F08040201008040201DE
:10169200900050E0FF740FC39FFF7401A807082257
:1016A200EFF0A3EDF0A3EBF0A3EAF0A3E9F022FF41
:1016B200E02FF090003EE0C36480948022900036D8
:1016C200E0FF900033E0C39F22900039E0FFA3E0E7
:1016D200FD22E004F0E0FFA3E0C39F22900033E08C
:1016E200FF900035E0FD22E0FBA3E0FAA3E0F9A3BE
:1016F200E022900036E0FF900034E022900036E0D5
:06170200FF900035E0221B
:0A1AD500EF1FAC0670011E4C6028E4
:101ADF00E4900033F0A3F0C3900034E094FA900048
:101AEF0033E0940050E000000000A3E004F070E742
:081AFF00900033E004F080DFE9
:011B070022BB
:101D0600C290D291D29200000000E580339200C2C8
:031D160092A20096
:011D190022A7
:101C1E00121D0640FBC290C291C292000000008FBE
:0E1C2E008000000000D29200000000C292224E
:101C3C00121D0640FBD290C291C292000000008F90
:0E1C4C008000000000D29200000000C2922230
:101CC7007580FFD290D291D2927F017E00121BBF06
:041CD700AF80C29286
:011CDB0022E6
:101B6C00D2937F34121B907F30121B907F0C121C6F
:101B7C001E7F057E00121AD57F01121C1E7F057E6A
:0F1B8C0000021AD5121C1E7F057E00121AD522E8
:101618007F34121C1E121C1EE4900033F0E490006C
:1016280034F0900034E0FFC39420503DEF2480FF55
:10163800121687900033E070047F8080027F881242
:101648001687E4900035F0E4FF121C3C121C3C0F96
:101658007E00121BBF900035E004F0E0C3941040F8
:10166800E6900034E004F080B9900033E004F0E044
:0F167800C3940240A87F36121C1E7F30021C1E36
:0B168700121C1E7F017E00121BBF2200
:07137E0090004EEBF0AE07FA
:101385007F36121C1EEEC4540FA3F0EE540FA3F0CB
:10139500EDC4135407A3F0ED541FA3F012144B1220
:1013A5001CC7121CC7900053EFF0121CC7900054C5
:1013B500EFF07F017E00121BBF900052E012144B2C
:1013C5007F017E00121BBF900050E0FFC3940850C0
:1013D5003C90004EE0B4011374071216998002C3C5
:1013E50033D8FCFF900053E04F8018900050E0FF89
:1013F500C3740712169A8002C333D8FCF4FF900019
:1014050053E05FFF121C3C900054E0803090005385
:10141500E0FF121C3C90004EE0B4011112169280C0
:1014250002C333D8FCFF900054E04F80101216928F
:101435008002C333D8FCF4FF900054E05FFF121C18
:061445003C7F30021C1E7A
:10144B002480FF121C1E90004FE02480FF9000515F
:0B145B00E075F008A42FFF121C1E22F9
:0D19F800900041EBF090003FEFF0A3EDF008
:101A0500EFD39D400DE0FF90003FE0A3F090003F35
:101A1500EFF090003FE0FF900041E0FDA3E0FB12F6
:0A1A2500137E90003F1216D450E823
:011A2F002294
:0B1A9F0090003FEFF0A3EDF0A3EBF090
:101AAA00EDD39B400DE0FF900040E0A3F090004092
:101ABA00EFF090003FE0FFA3E0FD900042E0FB1250
:0A1ACA00137E9000401216D450E87D
:011AD40022EF
:0F0E4500900034EDF0900033EFF0900035EBF0BB
:100E5400B50710900033E0FFA3E0FD900036E0FBFF
:100E6400A380501216F4FBB507061216DE020EEB31
:100E7400900033E0FC900035E0C39CFE900038F015
:100E8400900034E0FD900036E0FBC39D900039F003
:100E9400D3EE648094804006A37401F0801D90001A
:100EA400381216B8500890003A74FFF0800DAF0461
:100EB400900037E0900042F0021A9F900039E0FF62
:100EC400D364809480400890003B7401F08023C375
:100ED400EF64809480500890003B74FFF0801312FC
:100EE40016DE900034E0FB900037E0900042F00200
:100EF40019F8900038E0FF90003AE08FF0A49000D9
:100F040038F0A3E0FF90003BE08FF0A4900039F0AC
:100F1400900038E0FF90003CF0900039E090003DF4
:100F2400F0C36480F8EF648098404590003DE09FF2
:100F3400A3F0900035E0FE900033E0FF6E602F12C6
:100F44000FD590003AE09000331216B1500890008B
:100F54003DE0FFA3801390003C1216D7FFA3E02FBF
:100F6400F090003BE0FF900034E02FF080C4805804
:100F7400900039E0FF90003CE0C39F90003EF012E7
:100F840016F4FD6F6042900033E0FF900037E0FB01
:100F940012137E90003BE09000341216B1500A9078
:100FA400003CE0FF90003E801A90003DE0FF90007E
:100FB4003CE0C39FFF90003EE02FF090003AE0FF3A
:100FC400900033E02FF080B7900033E0FF120FD58C
:0D0FD40022A3E0FD900037E0FB12137E2207
:08116900900033EFF0A3EDF05C
:10117100EBD3941F4003021228EB7003021228E400
:10118100900035F0A3EBF025E0FFC374039FA3F0BB
:101191001216FEFED3EF6480F8EE648098400302DD
:1011A10012281216C4FFA3E012126D2F1212292E5B
:1011B100FD7B0112137E1216BF12122912126D2F1E
:1011C10012127F900035E0FF900033E02FFF900076
:1011D10036E0FE900034E0C39EFD7B0112137E12C7
:1011E10012511216BF12127F900035E004F09000E8
:1011F100371216B85013900035E025E025E024069B
:10120100FF900037E02FF080181216FEC39F25E0F3
:1012110025E0240AFF900037E02FF0900036E0141B
:07122100F0121251021191BD
:1012280022FF900035E0FE900034E0C39EFD7B0174
:1012380012137E900035E0FF900033E0C39FFF90CB
:101248000036E0FE900034E022900035E0FF900088
:1012580033E02FFF900036E0FE900034E02EFD7B57
:101268000112137E22C39EFD7B0112137E9000366D
:10127800E0FF900033E022FF900035E0FE9000345C
:09128800E02EFD7B0112137E2211
:0617710090003C1216A2DC
:10177700E4900044F0900042E0FF900044E0C39FF3
:10178700504C90003CE0FFA3E0FDA31216E9900047
:101797004AF0900043E090004BF012146690003D31
:1017A700E004F0900041E0FF131313541FFD900075
:1017B7003FE48DF0120B63EF5407600A90003FE49B
:0E17C70075F001120B63900044E004F080A75F
:0117D50022F1
:0B1466009000461216A5900045EFF024
:10147100D3947F40030214F9900046E0D3943F5087
:1014810077E490004DF090004AE0FF90004DE0FEBF
:10149100C39F5064EE5407FF7017900047E0FBA311
:1014A100E475F001120B79A9F0FA120AB690004C1A
:1014B100F0EF900E3D93FF90004CE05F700B9000B9
:1014C1004BE0900045700B801290004BE09000457E
:1014D1007009E0FFA3E0FD7B018007E0FFA3E0FDD1
:1014E100E4FB12137E900045E004F0D3947F500892
:0814F10090004DE004F0808E34
:0114F90022D0
:10183500900039EFF0A3EDF0A3EBF024D1600F2475
:101845000F70161216CB7BFF7A0B79D580201216F6
:10185500CB7BFF7A0B79DD801590003BE075F008B6
:10186500A42465F9740A35F0FA7BFF1216CB9000B3
:0F187500417405F0A37408F0E4A3F01217712278
:061A30009000331216A223
:101A3600E4A3F09000351216E9F582758300120AC8
:101A4600CFFB601D900038E075F005A4FF900033D1
:101A5600E02FFFA3E0FD121835900038E004F08077
:011A6600D2AD
:011A6700225C
:101BBF00E4FDFCC3ED9FEC9E5015E4FBFA0BBB005C
:0F1BCF00010AEB640A4A70F50DBD00010C80E4B9
:011BDE0022E4
:101B1800410057004100580042005500004200595A
:071B2800000042005B000019
:101C9600C2AFD2BBC2B853890F438910758D4CE4CD
:0B1CA600F58BD2ABD28ED288D2A822E0
:03001B000212913D
:10129100C0E0C0F0C083C082C0D075D000C000C023
:1012A10001C002C003C004C005C006C007C28E75DC
:1012B1008D4C758B0090005AE004F0700690005937
:1012C100E004F0C390005AE09414900059E09400B7
:1012D1005003021361C2A8E4F0A3F090005CE004A3
:1012E100F0700690005BE004F0900058E0FCE4121E
:1012F10008BE7BC57A207920784012070E1208F2C9
:10130100900055EEF0A3EFF0900058E4F090005BF0
:10131100E0FEA3E0FF7C007D0A120B0EED4C703E57
:1013210090005DE0F8A3E0F9A3E0FAA3E0FBC000C0
:10133100C001C002C003900062E0FEA3E0FF7C0197
:101341007D68120B0EAC06AD07E41208B9D003D0CC
:1013510002D001D00012061D90005D120BC9D2A867
:10136100D28ED007D006D005D004D003D002D00150
:0D137100D000D0D0D082D083D0F0D0E032B8
:03000300021D4299
:101D4200C0E0C083C082900058E004F0D082D0830B
:031D5200D0E032AC
:101BFF00C2A27F677E00EF1F70011EEF4E70F7D2FB
:0E1C0F00A27E007F04EF1F70011EEF4E70F7E3
:011C1D0022A4
:101B9B00C2A20FBF0000D2A20FBF00000FBF0000F8
:101BAB00A2A292007E007F08EF1F70011EEF4E7005
:031BBB00F7A2008E
:011BBE002204
:101C5A00E4FD7C01121B9BE433FFC433333354800D
:0D1C6A00FEEDC3134EFD0CECB409E9AF050F
:011C7700224A
:101C7800121BFF7F027E00121CDC7F3312196E12CA
:0D1C88001C5A900068EFF0121C5AA3EFF0F8
:011C9500222C
:02196E00A907C7
:101970007F01E9139200E9C313F930001BC2A20BE7
:10198000BB00000BBB0000D2A27A007B08EB1B70EF
:10199000011AEB4A70F7801BC2A27A007B08EB1B8E
:1019A00070011AEB4A70F7D2A20BBB00010A0BBB05
:0819B00000010A0FEFB409BAAF
:0119B800220C
:101D1A00121BFF7F017E00121CDC7FCC12196E7F22
:041D2A004402196EE8
:1017D600121D1A121BFF7F017E00121CDC7FCC1229
:1017E600196E7FBE12196E121C5AAB07121C5AEFE5
:1017F600FEEBFFFDAC06E41208B9E4FBFA7980784B
:101806003D12070E900033120BC9E4FFFE7D207CCB
:1018160041900033E0F8A3E0F9A3E0FAA3E0FB125D
:0E182600070EE4FBFAF9783F12061D1208F2D5
:011834002291
:101CDC00D3EF9400EE9400400B7D78DDFEEF1F7087
:041CEC00EF1E80EC7B
:011CF00022D1
:0A000E00D2A0120006D2A1020006E3
:101D2E00D2A1120006D2A0120006C2A1120006C253
:041D3E00A0020006F9
:0F1D6700C2A1120006D2A0120006D2A1020006ED
:101A6800900036EFF0E4900035F0900036E0FF2566
:101A7800E0F0C2A012000692A1120006D2A0120045
:101A880006900035E004F0E0C3940840DDC2A012DF
:071A98000006D2A1020006C6
:1018D300E4900037F0C2A0120006D2A1E4900035D4
:1018E300F0120006D2A012000630A1089000367450
:1018F30001F08005E4900036F0900037E025E0FF2A
:10190300900036E04FA3F0C2A0900035E004F0E071
:0D191300C3940840CC120006900037E0FF9E
:0119200022A4
:101BDF00E4900035F0D2A012000630A10E9000352F
:101BEF00E0C394FF5005E004F080EFC2A0020006AE
:0519B900900033EFF087
:1019BE00121D2E7FA01219F1900033E0FF1219F1C3
:1019CE00121D2E7FA1121A68121BDF1218D390005F
:1019DE0034EFF0121D677F647E00121D55900034A7
:0219EE00E0FF18
:0819F00022121A68121BDF220B
:101B3A00900033EFF0A3EDF0121D2E7FA0121A6869
:101B4A00121BDF900033121B63900034121B6312C6
:101B5A001D677F887E13021D55E0FF121A68121B4B
:021B6A00DF2278
:03000600000022D5
:101D5500E4FDFCC3ED9FEC9E50070DBD00010C801A
:011D6500F28B
:011D6600225A
:1017080020A5177F0A7E00121CF120A50A9000640C
:101718007403F0A374E8F030A5FD20A4177F0A7EB7
:1017280000121CF120A40A9000647407F0A374D07E
:10173800F030A4FD20A7177F0A7E00121CF120A715
:101748000A9000647413F0A37488F030A7FD20A6F3
:10175800177F0A7E00121CF120A60A9000647423E9
:09176800F0A37428F030A6FD2264
:101CF100D3EF9400EE9400400B7D6EDDFEEF1F707C
:041D0100EF1E80EC65
:011D050022BB
:0A1B2F00420064000042006600005E
:0F1D7600FCA3E0FDECF404F58CEDF404F58A22F7
:101CB100C2AF5389F0438901D2B7900064E0121D8D
:061CC10076D2A9D28C22AC
:03000B0002188454
:10188400C0E0C083C082C0D075D000C004C005C011
:1018940006C007900064E020B707121D76D2B78017
:1018A4001DFEA3E0FFC3900067E09FFD900066E08B
:1018B4009EF404F58CAF05EFF404F58AC2B7D007A3
:0F18C400D006D005D004D0D0D082D083D0E0326F
:1006160002095EE86480F8E933E83360110460F0AB
:10062600ED33EC337009E8FCE9FDEAFEEBFF22044A
:1006360060DED3EB9FEA9EE99DE8C2E78CF0C2F745
:1006460095F0400CE8CCF8E9CDF9EACEFAEBCFFB11
:1006560012092985D0F05804700320D5B3E8047038
:10066600075002B2D502096892D5EC0460F7E4CCD3
:10067600C0E0C398F8603B94186008400DD0E0FBDA
:10068600020940E4FBFAC9FC8028E830E406E4C924
:10069600FBE4CAFCE830E305E4C9CACBFCE854072E
:1006A6006010F8C3E913F9EA13FAEB13FBEC13FC39
:1006B600D8F130F52FC3E49CFCEF9BFFEE9AFEEDDC
:1006C60099FDD0E0FBEF4E4D4C701222DB03020980
:1006D60065EC2CFCEF33FFEE33FEED33FDED30E73A
:1006E600EB020940EF2BFFEE3AFEED39FDD0E0FBC1
:1006F60050130BBB0003020968ED13FDEE13FEEF6A
:0807060013FFEC13FC02094093
:10070E00EC4D6011E8497017ED33EC3304600DE4E5
:10071E00FCFFFEFD22E933E8330470F802095E1295
:10072E00092958046009E4CC248150062850090296
:10073E000968284003020965C0E0EB4A7044B9809D
:10074E0006D0E0FB020954EF4E701CBD8008EBFF93
:10075E00EAFEE9FD80EBE98DF0A4FEE5F00207F775
:10076E00E9CDF9EAFEEBFFEF89F0A4FCE5F0CE89C6
:10077E00F0A42EFFE435F0CD89F0A42DFEE435F083
:10078E008067EF4E7005BD80D780C3EF8BF0A4ACB1
:10079E00F0EE8BF0A42CFCE435F0F8EF8AF0A42CEC
:1007AE00E5F038FCE433CB8DF0A42CFCE5F03BF8FF
:1007BE00EE8AF0A42CFCE5F038F8E433CF89F0A4EF
:1007CE002CFCE5F038CF3400CE89F0A42FFFE5F0F5
:1007DE003EFEE433C98DF0A42EFEE5F039CD8AF04D
:1007EE00A42FFFE5F03EFEE43DFD33D0E0FB5007C5
:1007FE000BBB000F020968EC2CFCEF33FFEE33FE4F
:06080E00ED33FD0209407C
:10081400020968EC5D046005E85904700302095E8E
:10082400120929580460F6EC4860F2EC7004FDFEED
:10083400FF22C860DB2481C85009C39860025006B7
:100844000209659850CAF582E9294B4A7005AB82C2
:1008540002095475F0007C1A7880C3EF9BEE9AED80
:1008640099400DC3EF9BFFEE9AFEED99FDE842F02F
:10087400DC23ACF0D0E0FFD0E0FED0E0FDAB822082
:10088400E7101BEB60BAEC2CFCEF33FFEE33FEED0C
:1008940033FD020940E803F830E705C0F075F000C5
:1008A400EF2FFFEE33FEED33FD40B830E7C280AAF0
:1008B40075F020800E75F010800575F0087D007EBF
:1008C400007F003392D530D503120B8FEC334010E8
:1008D400EF33FFEE33FEED33FDEC33FCD5F0ED22C8
:0E08E400E5F0247EA2D513CC92E7CDCEFF2204
:1008F200EDD2E7CD33EC3392D524814006E4FFFEFE
:10090200FDFC22FCE4CFCECDCC24E0501174FF805C
:10091200EDC3CC13CCCD13CDCE13CECF13CF0470F9
:07092200F030D5DE020B8F5F
:100FE1003A70FA83BCAAE9E43E81E0F8BF9DE9E6E4
:100FF1003F80000039283C1ABB9969663DA335E35F
:10100100BF255DE73FC90FDB418DDBCCC44936EE1F
:1010110045C9913FC5B0F83D3F800000C317F53485
:10102100452FFA73C60AFDDD1210EA04A2E192000F
:101031001420E015900FE17404120973803012102E
:10104100EA30E102B20020E0EBA883A982900033EC
:10105100120BC989828883900FF574041209738574
:1010610082F0900033120BAD85F08212070EED4C29
:101071006007300004EC6480FC221210EAC0E0A892
:1010810083A982900033120BC98982888390101939
:1010910074031209738582F0900033120BAD85F051
:1010A1008212070E900033E0CCF0A3E0CDF0A3E074
:1010B100CEF0A3E0CFF09010097403120973D0822F
:1010C1008582F0900033120BAD85F082E58230E02D
:1010D10007120817B2008096EFCBFFEECAFEEDC9EA
:1010E100FDECC8FC1208178085ED33EC547FCC333E
:1010F100920024605007D0E0D0E002095E7B837A41
:10110100F97922783E12070EEDF933ECF833248198
:101111005011EFFBEEFA1208F21208B4ECB2E7FC40
:1011210012061DED33EC33602F2403F8C313FCEDDD
:1011310092E7FDE82481E4501FECF8EDF9EEFAEFB7
:10114100FB1208F2EF04C2E0FCF5821208BEECB219
:10115100E7FC12061DE58203FAED33EC3360071458
:0811610013FCED92E7FDEA2208
:10092900E9D2E7C933E833F892D5EDD2E7CD33EC14
:0709390033FC5002B2D5228D
:10094000EC30E7100FBF000C0EBE00080DBD000418
:100950000BEB6014A2D5EB13FCED92E7FD2274FFC4
:10096000FCFDFEFF22E480F8A2D574FF13FC7D801D
:03097000E480EF31
:10097300C0E0EFFBEEFAEDF9ECF812070ED0E0F56C
:10098300F0EFFBEEFAEDF9ECF8120B9DA3A3A3A392
:10099300E8C0E0E9C0E0EAC0E0EBC0E0C0F0120765
:1009A3000E120BB9A3A3A3A312061DD0F0D0E0FB34
:0D09B300D0E0FAD0E0F9D0E0F8D5F0D42281
:1015980002001EE493A3F8E493A34003F68001F24B
:1015A80008DFF48029E493A3F85407240CC8C33354
:1015B800C4540F4420C8834004F456800146F6DF23
:1015C800E4800B0102040810204080901B08E47E90
:1015D800019360BCA3FF543F30E509541FFEE49318
:1015E800A360010ECF54C025E060A840B8E493A3DF
:1015F800FAE493A3F8E493A3C8C582C8CAC583CA0A
:10160800F0A3C8C582C8CAC583CADFE9DEE780BEC1
:011B390000AB
:1009C000E709F608DFFA8046E709F208DFFA803E19
:1009D00088828C83E709F0A3DFFA8032E309F60806
:1009E000DFFA8078E309F208DFFA807088828C836E
:1009F000E309F0A3DFFA806489828A83E0A3F60822
:100A0000DFFA805889828A83E0A3F208DFFA804CFB
:100A100080D280FA80C680D4806980F280338010D2
:100A200080A680EA809A80A880DA80E280CA80333B
:100A300089828A83ECFAE493A3C8C582C8CCC583B3
:100A4000CCF0A3C8C582C8CCC583CCDFE9DEE78083
:100A50000D89828A83E493A3F608DFF9ECFAA9F002
:100A6000EDFB2289828A83ECFAE0A3C8C582C8CC58
:100A7000C583CCF0A3C8C582C8CCC583CCDFEADE71
:100A8000E880DB89828A83E493A3F208DFF980CCD3
:100A900088F0EF60010E4E60C388F0ED2402B404CC
:100AA0000050B9F582EB2402B4040050AF23234573
:060AB0008223900A10737E
:100AB600BB010689828A83E0225002E722BBFE023E
:090AC600E32289828A83E4932271
:100ACF00BB010CE58229F582E5833AF583E02250DC
:100ADF0006E92582F8E622BBFE06E92582F8E22226
:0D0AEF00E58229F582E5833AF583E4932240
:100AFC00EF8DF0A4A8F0CF8CF0A428CE8DF0A42E0E
:020B0C00FE22C7
:100B0E00BC000BBE0029EF8DF084FFADF022E4CCCB
:100B1E00F875F008EF2FFFEE33FEEC33FCEE9DEC94
:100B2E00984005FCEE9DFE0FD5F0E9E4CEFD22EDDA
:100B3E00F8F5F0EE8420D21CFEADF075F008EF2F24
:100B4E00FFED33FD4007985006D5F0F222C398FD15
:050B5E000FD5F0EA22B2
:100B6300C5F0F8A3E028F0C5F0F8E582158270021D
:060B73001583E038F022BA
:100B7900A3F8E0C5F025F0F0E5821582700215832F
:060B8900E0C838F0E8228C
:0E0B8F00C3E49FFFE49EFEE49DFDE49CFC2277
:100B9D00E493FC740193FD740293FE740393FF229E
:0C0BAD00E0F8A3E0F9A3E0FAA3E0FB22CB
:100BB900E493F8740193F9740293FA740393FB2292
:0C0BC900ECF0A3EDF0A3EEF0A3EFF0229F
:00000001FF
